:020000040800F2
:10000000B04D0020A1010008E93E00088339000836
:10001000E53E0008690A0008A55700080000000036
:100020000000000000000000000000004152000835
:100030000B0C000800000000ED3E000843520008D1
:10004000BB010008BB010008BB010008BB010008A0
:10005000BB010008BB010008BB010008BB01000890
:10006000BB010008BB010008BB010008BB01000880
:10007000BB010008BB010008BB010008BB01000870
:10008000BB010008BB010008BB010008BB01000860
:10009000BB010008BB010008BB010008BB01000850
:1000A000BB010008BB010008BB010008BB01000840
:1000B000BB010008BB01000819530008BB01000880
:1000C000BB010008BB010008BB010008BB01000820
:1000D000BB010008BB010008BB010008BB01000810
:1000E000BB010008BB010008BB010008BB01000800
:1000F000BB010008BB010008BB010008BB010008F0
:10010000BB010008BB010008BB010008BB010008DF
:10011000BB010008BB010008BB010008BB010008CF
:10012000D10A0008E10A0008F10A0008BB01000832
:10013000BB010008BB010008BB010008BB010008AF
:10014000BB010008BB010008BB010008BB0100089F
:10015000BB010008BB010008BB010008BB0100088F
:10016000BB010008BB010008BB010008BB0100087F
:10017000BB010008BB010008BB0100080000000033
:10018000BB010008BB010008DFF810D000F0E0FA66
:1001900000480047DD7F0008AFF30080B04D00202D
:1001A0000648804706480047FEE7FEE7FEE7FEE711
:1001B000FEE7FEE7FEE7FEE7FEE7FEE70553000881
:1001C000890100082DE9F05F0546002092469B4614
:1001D00088460646814640241BE02846414647465D
:1001E000224600F005FA53465A46C01A914110D3F0
:1001F00011461846224600F0ECF92D1A67EB01086B
:100200004F4622460120002100F0E3F917EB0009D8
:100210004E41201EA4F10104DFDC484631462A4647
:100220004346BDE8F09F40EA01039B0703D009E085
:1002300008C9121F08C0042AFAD203E011F8013BD2
:1002400000F8013B521EF9D27047D2B201E000F82B
:10025000012B491EFBD270470022F6E710B513466A
:100260000A4604461946FFF7F0FF204610BD421C1F
:1002700010F8011B0029FBD1801A70472DE9FE4FB1
:10028000804681EA0300C00F0C46009021F0004137
:1002900023F00045B8EB0200A94105D240462146B3
:1002A00090461C460B46024623F00040104347D0C0
:1002B000270DC7F30A00C3F30A510290401A0190B8
:1002C00040286BDAC3F3130040F4801B0098924679
:1002D00020B10023D2EB030A63EB0B0B01985946C4
:1002E000C0F14002504600F074F906460D465046F3
:1002F0005946019A00F08CF910EB08006141002486
:1003000087EA115284EAE7731A4340D0009A62B335
:10031000019A012A4FEA075215DC001B61EB02012A
:100320004FF0004202EA0752CDE90042001C41F5BD
:10033000801132462B4600F08CF903B0BDE8F08FF7
:1003400040462146F9E7001B61EB0201001C41F524
:10035000801300185B412018A2F5001747EB03013A
:1003600040EAD570B6196D4111E06D084FEA3606C6
:1003700045EAC0754FEA0752001B61EB0201001C01
:1003800041F5801149084FEA3000001951413246C9
:100390002B4603B0BDE8F04F00F04CB900980122A5
:1003A00040000023D0EB020263EBE073009821468B
:1003B0004FEAE074B8EB000061EB0401E9E783F079
:1003C00000435BE781F0004158E72DE9FE4F81EAE9
:1003D000030404F0004421F0004100944FF0000BAE
:1003E00023F0004350EA01045ED052EA03045BD0DC
:1003F000C3F30A54C1F30A552C44A4F2F334019414
:10040000A0FB0254C1F3130141F48011C3F31303A1
:1004100043F4801301FB024400FB034E840A970A55
:1004200044EA815447EA8357A4FB076802958D0A82
:1004300005FB07854FEA932C04FB0C542705029D0E
:100440004FEA065847EA1637B5EB08056EEB070C7E
:10045000870E920E47EA811742EA8312A7FB020138
:10046000B6EB0B0164EB00042B0D43EA0C335E1872
:1004700044EB1C50DA465146E7FB0201C5F3130476
:100480004FEA0B3343EA14534FEA0432019C43EA28
:100490000603A4F10C040294009CCDE900B400F022
:1004A000D8F803B0BDE8F08F00200146F9E72DE948
:1004B000F04D81EA030404F0004B21F0004514469E
:1004C0004FF0000A23F0004150EA050220D054EA20
:1004D00001021DD0C5F30A570246C5F31303C1F349
:1004E0001300C1F30A5640F4801543F48013A7EBC0
:1004F0000608101BD64608F2FD3873EB050002D340
:1005000008F1010801E092185B41B8F1000F03DA2D
:1005100000200146BDE8F08D00204FF48011064612
:1005200084460EE0171B73EB050705D3121B63EB24
:10053000050306434CEA010C49084FEA30009218C3
:100540005B4150EA0107EDD152EA030012D082EA82
:10055000040083EA0501084305D0101BAB4106D215
:100560000122002306E000224FF0004302E06FF07A
:10057000010253101AEB06004CEB085110EB0A0075
:1005800041EB0B01BDE8F04D00F054B80EB540F260
:10059000334102910021CDE900110A460B4600F0DB
:1005A00058F803B000BD30B50B46014600202022AC
:1005B000012409E021FA02F59D4205D303FA02F570
:1005C000491B04FA02F52844151EA2F10102F1DCD0
:1005D00030BD202A04DB203A00FA02F100207047E7
:1005E0009140C2F1200320FA03F319439040704771
:1005F000202A04DB203A21FA02F00021704721FA78
:1006000002F3D040C2F120029140084319467047DE
:10061000202A06DBCB17203A41FA02F043EAE073C6
:1006200006E041FA02F3D040C2F1200291400843B3
:100630001946704710B5141E73F1000408DA401C07
:1006400041F1000192185B411A4301D120F00100F1
:1006500010BD2DE9F04D92469B4611B1B1FA81F2E1
:1006600002E0B0FA80F220329046FFF7B2FF044673
:100670000F4640EA0A0041EA0B0153465A46084336
:1006800013D0114653EA010019D0C8F14002504678
:10069000FFF7AEFF05460E46504659464246FFF765
:1006A00098FF084305D0012004E020463946BDE804
:1006B000F08D0020054346EAE0762C4337430A9844
:1006C0006305E40AA0EB08000022FD0A44EA47544F
:1006D0000A3002D500200146E9E7010510196941F9
:1006E000DDE9084500196941BDE8F04DA2E7C1F315
:1006F0000A52C1F3130140F2FF3341F480119A42D0
:1007000002DA00200146704740F233439A42A2F2D7
:10071000334202DC5242FFF76BBFFFF75ABF0000C3
:1007200030B5041E71F1000404DB4FF00044404278
:1007300064EB0101141E73F1000405DB1C464FF04D
:100740000043524263EB0403994208BF904230BD1C
:10075000064C074D06E0E06840F0010394E807000E
:1007600098471034AC42F6D3FFF712FD28860008F4
:100770004886000870B50546AC6B206C00F0500050
:1007800050BB206C40F4007020642068806800F04A
:100790004050E8B9207ED8B92068C06A00F47000E3
:1007A00020B12068806800F4806088B920684068C3
:1007B00020F0200021684860206C20F480702064C4
:1007C000206C00F4805018B9206C40F001002064C7
:1007D000204600F017FB0BE0206C00F0100018B171
:1007E000204600F0D0FB03E0A06BC16C2846884790
:1007F00070BD70B50546AC6B40202064606C40F065
:1008000004006064204600F0BEFB70BD70B5044675
:10081000A56B284600F0B6FB70BD000055494A683C
:1008200022F440324A604A6843681A434A600268C8
:10083000526822F4807203685A6002685368026941
:1008400043EA022203685A600268526822F040724A
:1008500003685A600268526883681A4303685A60E2
:100860000268926822F4006203689A6002689268E3
:10087000C3681A4303689A603F4B826A9A4218D051
:100880000268926822F0706203689A600268926857
:10089000836A1A4303689A600268926822F04052A1
:1008A00003689A6002689268C36A1A4303689A6090
:1008B0000BE00268926822F0706203689A60026836
:1008C000926822F0405203689A600268926822F0AF
:1008D000020203689A6002689368027E43EA420259
:1008E00003689A602022125CA2B10268526842F446
:1008F000006203685A600268526822F4604203682A
:100900005A6002685368426A521E43EA42320368E0
:100910005A6005E00268526822F4006203685A6077
:100920000268D26A22F470020368DA620268D36A4B
:10093000828B521E43EA02520368DA6202689268AE
:1009400022F4007203689A600268936890F830207D
:1009500043EA422203689A600268926822F4806245
:1009600003689A6002689368426943EA82220368D6
:100970009A607047002301400100000F10B5012468
:10098000E103034801F068F800B10024204610BDDF
:10099000000C024010B504462146024802F0CAF895
:1009A00010BD00004445002010B5044802F0D5F801
:1009B000042801D0012010BD0020FCE744450020A0
:1009C00010B5002400F014F8012801D0012010BD5A
:1009D000064802F0D4F8044634B94FF400610348E5
:1009E00001F060FF00B101242046F0E744450020FB
:1009F00008B501200090FFF7C1FF08B90020009062
:100A00009DF8000008BD00002DE9F84304460D469E
:100A100016461F464FF0000833462A462146054831
:100A2000009702F083F908B14FF001084046BDE895
:100A3000F8830000444500202DE9F84304460D46A4
:100A400016461F464FF0000833462A462146054801
:100A5000009702F0BDFA08B14FF001084046BDE82A
:100A6000F88300004445002000BFFEE770B586B063
:100A700000BF13480068406A0646182211496846BC
:100A8000FFF7D1FB002516E05DF82540B4F8E00142
:100A900000280FDD94F8E20160B9D4F8E401301ABF
:100AA0000949884206D30121084800F0DDFF2046AD
:100AB00004F07AFE6D1C062DE6DB06B070BD00006A
:100AC000304600209885000880841E0000080240FF
:100AD00010B5024800F0D2FC10BD0000F843002021
:100AE00010B5024800F0CAFC10BD0000B844002058
:100AF00010B5024800F0C2FC10BD000058440020B0
:100B00000146087810381823B0FBF3F20848805CDF
:100B1000C865032A05D908686FF30900001D8865B8
:100B200003E008686FF309008865886D704700006E
:100B3000DC850008014600208A6A8B69CBB932B196
:100B4000012A0DD0022A03D0032A10D10EE000BFE3
:100B5000CB6A03F08073B3F1807F00D1012007E0FE
:100B6000CB6AB3F1C07F00D1012001E000E000BFFB
:100B700034E08B69B3F5005F1AD132B1012A07D096
:100B8000022A03D0032A11D10AE000BF01200EE09F
:100B9000CB6A03F08073B3F1807F00D1012006E0BF
:100BA000CB6AB3F1C07F00D1012000E000BF15E0A7
:100BB00032B1012A05D0022A04D0032A0CD103E065
:100BC00000BF00BF012008E0CB6A03F08073B3F1DF
:100BD000807F00D1012000E000BF00BF704730B52A
:100BE0000468246824F4802405682C600468636029
:100BF0008468402C04D10468A2600468E16003E0CA
:100C00000468A1600468E26030BD704772B600BF3E
:100C1000FEE730B504460D4600222946204600F086
:100C200001F830BDF0B50346012500241148407A93
:100C300001281CDA00200F4E767A0E4FB855384640
:100C4000467A001D40F82630001F467A083082554B
:100C50003E46707A461C7E72044604F130000870ED
:100C60003A2048702F2088700020C8700025284640
:100C7000F0BD0000A049002038B5024600200090D9
:100C800000BF92F83C00012801D1022038BD0120AC
:100C900082F83C0000BF0868092816D91068C068AF
:100CA0000C780A3C04EB44050724AC40A0431468CC
:100CB000E0600C780A3C04EB44048868A0401468A7
:100CC000E46820431468E06013E0106800690C7861
:100CD00004EB44050724AC40A043146820610C7861
:100CE00004EB44048868A040146824692043146815
:100CF00020614868072817D21068406B0C79641E81
:100D000004EB84051F24AC40A0431468606308888A
:100D100080B20C79641E04EB8404A0401468646BF8
:100D200020431468606331E048680D2817D21068CA
:100D3000006B0C79E41F04EB84051F24AC40A04336
:100D400014682063088880B20C79E41F04EB8404E3
:100D5000A0401468246B20431468206316E01068D8
:100D6000C06A0C790D3C04EB84051F24AC40A04301
:100D70001468E062088880B20C790D3C04EB8404AE
:100D8000A0401468E46A20431468E062194B1A4CCE
:100D90001068A04206D10868122803D1586840F4B0
:100DA00080005860144C1068A0421CD108681028BC
:100DB00002D00868112816D1586840F40000586025
:100DC000086810280FD10D4800680D4CB0FBF4F0F6
:100DD00000EB80004000009002E00098401E009070
:100DE00000980028F9D100BF002082F83C0000BF25
:100DF00000BF4BE700230140002001409800002085
:100E000040420F0070B5054600BF42480068406A86
:100E10000646A6F580644048854226D13F4800F04A
:100E2000D7FA3F48007860B901203E4908703E4833
:100E300004603E4839490968C86001203849087093
:100E40000BE001203A4908703A4804603A483349B7
:100E50000968C86000203249087030480068C168DD
:100E60004FF480622C4800F0D5F93448854226D1F1
:100E7000334800F0ADFA3348007860B901203249B8
:100E800008703248046032482D490968C860012062
:100E90002C4908700BE001202E4908702E48046090
:100EA0002E4827490968C860002026490870244850
:100EB0000068C1684FF48062204800F0ABF9284810
:100EC000854226D1274800F083FA2748007860B988
:100ED00001202649087026480460264821490968EF
:100EE000C8600120204908700BE0012022490870E9
:100EF0002248046022481B490968C86000201A493A
:100F0000087018480068C1684FF48062144800F007
:100F100081F970BD3046002020430020F8430020B6
:100F2000200000200000002008000020A808002069
:100F3000010000200C000020A800002068430020D1
:100F40005844002021000020020000201000002052
:100F5000A81800200300002014000020A810002082
:100F6000B0430020B84400202200002004000020EC
:100F700018000020A8280020050000201C000020E8
:100F8000A82000207047704770B5044600250CB9B2
:100F9000012070BD1549A06A884200D000BF206CB6
:100FA00030B9204600F024F80020606484F83C004A
:100FB000206C00F0100088B9206C20F4885040F0BC
:100FC000020020642046FFF729FC00206064206CAA
:100FD00020F0020040F00100206400E0012500BF85
:100FE000002084F83C0000BF2846D2E70100000F33
:100FF00010B586B00446142101A8FFF72DF97C49ED
:10100000206888424CD100BF0020009079480068D9
:1010100040F48070774908600846006800F48070EA
:10102000009000BF00BF00BF00200090714814383E
:10103000006840F001006F491439086008460068F4
:1010400000F00100009000BF00BF8020019003204D
:1010500002900020039001A9674800F003FC674854
:101060006749086000204860002165488160C160D0
:101070004FF4806101614900416189008161002173
:10108000C1614FF4003101620021416200F016FBA2
:1010900008B1FFF7BBFD00BF5948A0638463A5E01A
:1010A0005849206888424ED100BF00200090514826
:1010B000006840F400704F4908600846006800F47A
:1010C0000070009000BF00BF00BF002000904948A2
:1010D0001438006840F00100464914390860084699
:1010E000006800F00100009000BF00BF10200190D8
:1010F000032002900020039001A93F4800F0B2FBBA
:101100003E483030404908604FF000704860002190
:101110003D488160C1604FF48061016149004161D7
:10112000890081610021C1614FF400310162002119
:10113000416200F0C3FA08B1FFF768FD00BF324812
:10114000A063846352E03149206888424ED100BFD9
:10115000002000902748006840F48060254908601E
:101160000846006800F48060009000BF00BF00BF28
:10117000002000901F481438006840F001001D490D
:10118000143908600846006800F00100009000BFB4
:1011900000BF01200190032002900020039001A9CC
:1011A000154800F05FFB15481830194908604FF0EA
:1011B00080604860002116488160C1604FF4806102
:1011C000016149004161890081610021C1614FF4E1
:1011D000003101620021416200F070FA08B1FFF7AE
:1011E00015FD00BF0A48A063846300BF06B010BDB0
:1011F00000200140443802400000024010640240D8
:10120000F843002000210140584400200022014002
:10121000B84400202DE9F84304460D461646002048
:101220000090804600BF94F83C00012802D10220C3
:10123000BDE8F883012084F83C0000BF2068806886
:1012400000F00100A0B92068806840F0010021682A
:101250008860564800685649B0FBF1F000EB40004A
:10126000009002E00098401E009000980028F9D1FC
:101270002068806800F48070B0F5807F05D1206818
:10128000806820F48070216888602068806800F0A1
:10129000010000287FD0206C40F20161884340F4B7
:1012A000807020642068406800F4806028B1206C61
:1012B00020F4005040F480502064206C00F48050F2
:1012C000B0F5805F04D1606C20F00600606401E03E
:1012D0000020606400BF002084F83C0000BF354F50
:1012E0003548A16BC8633548A16B08643448A16BCD
:1012F000C8646FF02200216808602068406840F0F0
:101300008060216848602068806840F480702168AF
:101310008860226802F14C0133462A46A06B00F037
:1013200043FA8046786800F01F0018BB2549206802
:10133000884213D024492068884204D1381D0068AF
:1013400000F01F0050B12149206888422BD1194874
:10135000001D006800F01F00102824D2206880685B
:1013600000F04050F8B92068806840F08040216863
:10137000886018E013492068884214D1206880688A
:1013800000F0405078B92068806840F080402168C3
:10139000886008E0FFE7206C40F010002064606C7B
:1013A00040F001006064404642E7000098000020E1
:1013B00040420F0000230140750700080D08000897
:1013C000F3070008002001400021014000220140F5
:1013D00070B50446A56D00F057FB064694F835003D
:1013E000022808D08020606500BF002084F8340007
:1013F00000BF012070BD2068006820F01600216841
:1014000008602068406920F0800021684861206CF5
:1014100008B9A06C28B12068006820F00800216895
:1014200008602068006820F001002168086010E072
:1014300000F02AFB801B05280BD9202060650320C3
:1014400084F8350000BF002084F8340000BF03207A
:10145000D0E72068006800F001000028E8D194F887
:101460005C103F208840A860012084F8350000BF50
:10147000002084F8340000BF00BFBBE7F8B5044685
:10148000002000908C4800684FF41651B0FBF1F733
:10149000A56D2E6894F85C1008208840304098B103
:1014A0002068006800F0040070B12068006820F037
:1014B00004002168086094F85C1008208840A86047
:1014C000606D40F00100606594F85C100120884078
:1014D000304068B12068406900F0800040B194F865
:1014E0005C1001208840A860606D40F002006065DB
:1014F00094F85C1004208840304068B1206800688F
:1015000000F0020040B194F85C1004208840A8600C
:10151000606D40F00400606594F85C101020884015
:10152000304078B32068006800F0080050B394F8A9
:101530005C1010208840A8602068006800F48020BB
:1015400080B12068006800F4002028B9206CC8B180
:101550002046216C884715E0A06C98B12046A16C0C
:1015600088470FE02068006800F4807028B9206880
:10157000006820F0080021680860206C10B1204647
:10158000216C884794F85C10202088403040002867
:1015900065D02068006800F0100000285FD094F843
:1015A0005C1020208840A86094F83500052828D1D8
:1015B0002068006820F016002168086020684069F3
:1015C00020F0800021684861206C08B9A06C28B127
:1015D0002068006820F008002168086094F85C101A
:1015E0003F208840A860012084F8350000BF00201B
:1015F00084F8340000BF206D10B12046216D88476B
:10160000F8BD2068006800F4802080B12068006880
:1016100000F4002028B9606C10B12046616C884746
:101620001DE0E06BD8B12046E16B884717E02068E9
:10163000006800F4807068B92068006820F010002D
:1016400021680860012084F8350000BF002084F87C
:10165000340000BFE06B10B12046E16B8847606D3D
:1016600038B3606D00F00100F0B1052084F835005A
:101670002068006820F001002168086000BF009821
:10168000401C0090B84200D905E02068006800F0D6
:1016900001000028F3D100BF012084F8350000BF0D
:1016A000002084F8340000BFE06C10B12046E16CEB
:1016B000884700BFA4E70000980000202DE9F04112
:1016C0000446002500F0E0F9074614B90120BDE802
:1016D000F081606A00B100BF022084F8350000BFCD
:1016E000002084F8340000BF2068006820F001006A
:1016F000216808600AE000F0C7F9C01B052805D979
:1017000020206065032084F83500E0E72068006849
:1017100000F001000028EED120680568214805404E
:10172000D4E901010843E16808432169084361697C
:101730000843A1690843E1690843216A0843054356
:10174000606A042803D1D4E90B01084305432068EB
:1017500005602068456925F00705606A0543606AF1
:1017600004280DD1A06A0543E06A48B12046FFF77E
:10177000E1F928B140206065012084F83500A6E732
:10178000206845612046FFF7BBF9064694F85C10D7
:101790003F208840B06000206065012084F835005B
:1017A000002094E73F8010F02DE9F04704460D46F5
:1017B00016461F464FF00008D4F8589000BF94F822
:1017C0003400012802D10220BDE8F087012084F80E
:1017D000340000BF94F83500012825D1022084F898
:1017E0003500002060653B46324629462046FFF71B
:1017F000F6F994F85C103F208840C9F8080020688A
:10180000006840F0160021680860206C28B120684C
:10181000006840F00800216808602068006840F017
:1018200001002168086006E000BF002084F8340051
:1018300000BF4FF002084046C6E7000070B50446FE
:1018400000F022F906462546681C10B104480078CD
:10185000054400BF00F018F9801BA842FAD370BD00
:1018600094000020F8B502460B4600250024002015
:101870000021D6E0012606FA01F51E6806EA0504F5
:10188000AC4274D11E7906F00306012E04D01E79F5
:1018900006F00306022E13D190684F000326BE40C7
:1018A000B0434F00DE68BE40304390605068012670
:1018B0008E40B0431E79C6F300168E403043506010
:1018C0001E7906F00306032E09D0D0684F000326C8
:1018D000BE40B0434F009E68BE403043D0601E798A
:1018E00006F00306022E13D1CF0802F1200656F8A7
:1018F00027004E07F70E0F26BE40B0434F07FF0EDE
:101900001E69BE403043CF0802F1200646F827008A
:1019100010684F000326BE40B0431E7906F0030650
:101920004F00BE40304310605E6806F44036002E23
:1019300076D000BF002600963C4E366846F48046BE
:101940003A4F3E603E46366806F48046009600BF39
:1019500000BF374E8F0856F827008E07370F0F2627
:10196000BE40B043334EB24202D1002624E057E0DD
:10197000314EB24201D101261EE0304EB24201D1B9
:10198000022619E02E4EB24201D1032614E02D4E5C
:10199000B24201D104260FE02B4EB24201D10526FE
:1019A0000AE02A4EB24201D1062605E0284EB24294
:1019B00001D1072600E008268F073F0FBE403043C5
:1019C0001B4E8F0846F82700224E3068A0435E6801
:1019D00006F4801606B120431E4E3060361D306876
:1019E000A0435E6806F4001606B12043194E361D6A
:1019F0003060184E361F3068A0435E6806F400362B
:101A000006B12043134E361F3060361F3068A043A6
:101A10005E6806F4803606B120430E4E083E306004
:101A2000491C1029FFF426AFF8BD000044380240DD
:101A30000838014000000240000402400008024053
:101A4000000C024000100240001402400018024046
:101A5000001C0240083C0140024613690B400BB1D8
:101A6000012000E00020704710B5426921EA02031E
:101A700002EA010443EA0443836110BD0AB18161B3
:101A800001E00B0483617047014800687047000063
:101A90008C00002003480068034909780844014984
:101AA000086070478C0000209400002010B50D489D
:101AB000006840F400700B4908600846006840F474
:101AC000806008600846006840F480700860032069
:101AD00000F0A6F80F2000F007F800F02BF8002027
:101AE00010BD0000003C024070B504460E4800786E
:101AF0004FF47A71B1FBF0F00C490968B1FBF0F5D5
:101B0000284601F083FB08B1012070BD102C07D2DC
:101B100000222146501E00F045F80548046001E00F
:101B20000120F2E70020F0E7940000209800002058
:101B30009000002008B500BF002000900E4800680B
:101B400040F480400C4908600846006800F480407A
:101B5000009000BF00BF00BF00200090081F006879
:101B600040F08050091F08600846006800F080506F
:101B7000009000BF00BF08BD44380240014608463F
:101B800000280DDB00BF00BF00F01F0301229A40B8
:101B900043099B0003F1E023C3F8002100BF00BF0D
:101BA00000BF70472DE9F05F80460D4616460027BE
:101BB00003F0FCFE074639462A46334601F007008B
:101BC000C0F1070ABAF1040F02D94FF0040A01E08C
:101BD000C0F1070AD14600F1040ABAF1070F02D298
:101BE0004FF0000A01E0A0F1030AD4464FF0010AC9
:101BF0000AFA09FAAAF1010A0AEA020A0AFA0CFA2E
:101C00004FF0010B0BFA0CFBABF1010B0BEA030BD2
:101C10004AEA0B042146404603F0D0FEBDE8F09F9F
:101C200000BF00F00702064B19684FF6FF0319408A
:101C3000044B0B4343EA0221014B196000BF70477C
:101C40000CED00E00000FA05F8B50446002500267A
:101C5000207800F0010020B9207800F0040004286A
:101C60002FD100205B498866FFF70EFF054606E08E
:101C7000FFF70AFF401B022801D90320F8BD564890
:101C80000068C0F3C0600028F2D160688101207A4A
:101C900041EA007050498431086001204D4988664E
:101CA000FFF7F2FE054606E0FFF7EEFE401B0228B6
:101CB00001D90320E2E748480068C0F3C06000286B
:101CC000F2D0207800F0020002287DD100BF002071
:101CD000009041484030006840F080503E4940311B
:101CE00008600846006800F08050009000BF00BF08
:101CF0003A48006840F4807038490860FFF7C4FE35
:101D0000054606E0FFF7C0FE401B022801D903206C
:101D1000B4E73248006800F480700028F2D02E4802
:101D20007030006800F440764EB3A08900F4407033
:101D3000B04224D028487030006820F4407601205A
:101D4000274908600020086023487030066000685A
:101D500000F0010098B1FFF797FE054608E0FFF795
:101D600093FE401B41F28831884201D9032085E768
:101D7000194870300068C0F340000028EFD000BF61
:101D8000A08900F44070B0F5407F0CD112480830B3
:101D9000006820F4F810134AE168114008430E4926
:101DA0000831086007E00C480830006820F4F8109B
:101DB000094908310860084870300068A189C1F3FA
:101DC0000B010843044900E002E07031086000BFE5
:101DD000002053E7000047420038024000700040F6
:101DE000400E4742FFFCFF0F70B504460D460CB98C
:101DF000012070BD5848006800F00700A84209D2D1
:101E000055490D700846006800F00700A84201D04F
:101E10000120EEE7207800F0020002281DD1207892
:101E200000F00400042805D14C48006840F4E0505C
:101E30004A490860207800F00800082805D1474882
:101E4000006840F46040454908604448006820F05C
:101E5000F000A168084341490860207800F00100C3
:101E6000A8B36068012807D13C4808380068C0F36F
:101E70004040B8B90120BCE76068022802D0606821
:101E8000032807D1354808380068C0F3406048B9D6
:101E90000120AEE7314808380068C0F3400008B9B7
:101EA0000120A6E72D48006820F003006168084380
:101EB0002A490860FFF7E8FD064609E0FFF7E4FD60
:101EC000801B41F28831884202D9032091E707E064
:101ED0002248006800F00C006168B0EB810FEDD182
:101EE0001D48006800F00700A84209D91A490D7082
:101EF0000846006800F00700A84201D0012078E7FA
:101F0000207800F00400042807D11448006820F469
:101F1000E050E168084311490860207800F00800AB
:101F2000082808D10D48006820F46040216940EA83
:101F3000C1000A49086000F03FF808490968C1F388
:101F40000311074A515CC84006490860064800680A
:101F5000FFF7CAFD00204CE7003C02400838024071
:101F6000E4850008980000209000002001480068E7
:101F7000704700009800002000B5FFF7F7FF044904
:101F80000968C1F38221034A515CC84000BD0000CA
:101F900008380240F485000800B5FFF7E7FF044960
:101FA0000968C1F34231034A515CC84000BD0000DA
:101FB00008380240F48500082DE9F0470024002588
:101FC0000026A1462548006800F00C0020B1042836
:101FD00005D008283AD105E0DFF8849039E0DFF831
:101FE000849036E01D48001F006800F03F041B4845
:101FF000001F006800F4800078B11A481749091FD3
:102000000968C1F38811A0FB017001462246002334
:102010003846FEF7D7F805460EE011480F49091F6C
:102020000968C1F38811A0FB017001462246002314
:102030003846FEF7C7F805460848001F0068C0F399
:102040000140401C4600B5FBF6F902E0DFF81090B5
:1020500000BF00BF4846BDE8F087000008380240D6
:102060000024F40000127A00F8B504460CB90120EF
:10207000F8BD207800F00100002874D0F94800680D
:1020800000F00C0004280DD0F648006800F00C00A9
:10209000082813D1F348001F006800F48000B0F551
:1020A000800F0BD1EF4808380068C0F3404000288B
:1020B00059D06068002856D10120D9E700BF606878
:1020C000B0F5803F08D1E7480838006840F4803018
:1020D000E449083908601EE06068B0F5A02F0DD112
:1020E000E0480838006840F48020DE49083908607C
:1020F0000846006840F4803008600CE0D948083891
:10210000006820F48030D749083908600846006824
:1021100020F48020086000BF606890B1FFF7B4FC35
:10212000054606E0FFF7B0FC401B642801D90320F8
:102130009EE7CC4808380068C0F340400028F1D042
:1021400011E0FFF7A1FC054606E0FFF79DFC401BF0
:10215000642801D903208BE7C24808380068C0F31F
:1021600040400028F1D1207800F0020002285FD121
:10217000BC48006800F00C0058B1BA48006800F094
:102180000C0008281CD1B748001F006800F480002C
:10219000B0B9B44808380068C0F3400020B1E06826
:1021A000012801D0012063E7AE480838006820F01C
:1021B000F800216940EAC100AA490839086037E0FF
:1021C000E06800B30120A8490860FFF75DFC054600
:1021D00006E0FFF759FC401B022801D9032047E71E
:1021E000A04808380068C0F340000028F1D09D489E
:1021F0000838006820F0F800216940EAC1009949D8
:102200000839086014E0002097490860FFF73CFC9B
:10221000054606E0FFF738FC401B022801D90320E1
:1022200026E7904808380068C0F340000028F1D144
:10223000207800F0080008282CD16069A8B101209E
:102240008A490860FFF720FC054606E0FFF71CFC02
:10225000401B022801D903200AE782486C3000683D
:10226000C0F340000028F1D014E000207F4908604E
:10227000FFF70AFC054606E0FFF706FC401B0228B4
:1022800001D90320F4E677486C300068C0F34000C1
:102290000028F1D1207800F00400042870D1002734
:1022A00070483830006800F0805090B900BF0020BE
:1022B00000906C483830006840F0805069493831EF
:1022C00008600846006800F08050009000BF00BF22
:1022D00001276748006800F48070B0B9644800685E
:1022E00040F4807062490860FFF7CEFB054606E0C7
:1022F000FFF7CAFB401B022801D90320B8E65C485F
:10230000006800F480700028F2D000BFA0680128A7
:1023100008D154486830006840F0010051496831E4
:1023200008601DE0A06805280DD14E48683000689F
:1023300040F004004B49683108600846006840F0EE
:10234000010008600CE047486830006820F0010098
:102350004449683108600846006820F004000860BD
:1023600000BFA068A8B1FFF78FFB054609E0FFF7A3
:102370008BFB401B41F28831884202D9032077E66B
:1023800026E0384868300068C0F340000028EED0EE
:1023900013E0FFF779FB054608E0FFF775FB401BEC
:1023A00041F28831884201D9032061E62D48683026
:1023B0000068C0F340000028EFD1012F07D1294861
:1023C0003830006820F0805026493831086000BF5E
:1023D000A069002845D02348006800F00C000828B8
:1023E0005DD0A069022845D100201F490866FFF78B
:1023F0004BFB054606E0FFF747FB401B022801D9CF
:10240000032035E6174808380068C0F3406000280C
:10241000F1D1D4E907010843616A40EA8111012240
:10242000A06AC2EB500041EA00412C20005D41EA65
:1024300000600C49091F086001200B490866FFF77E
:1024400023FB054606E0FFF71FFB401B022801D9CE
:1024500003200DE6034808380068C0F340600028F8
:10246000F1D049E00838024000004742800E474260
:1024700000700040002021490866FFF705FB054673
:1024800006E0FFF701FB401B022801D90320EFE51E
:102490001B480068C0F340600028F2D12CE0A0691E
:1024A000012800D1E4E51648001D0668A06901284E
:1024B00020D006F48001E06981421BD106F03F0183
:1024C000206A814216D147F6C0703040616AB0EB95
:1024D000811F0FD106F440310122A06AC2EB5000E7
:1024E000B1EB004F06D106F070612C20005DB1EB1E
:1024F000006F01D00120BBE50020B9E50000474294
:102500000038024002460023106800F1500303EB3C
:1025100081031868704710B50023046804F1500364
:1025200003EB81031A6010BD70B505460B461646D5
:102530000024286840680E4900EA0104200CD87085
:10254000C4F30420587004F03F009870C4F3423084
:1025500018705EB9D87801F02DFDD870587801F068
:1025600029FD5870987801F025FD9870002070BD05
:102570003FFFFF0070B504460B4616460025206855
:10258000806A586020680069C0F30E009860206877
:1025900000680E4900EA0105C5F305401870C5F34F
:1025A0000620587005F07F009870A80DD8705EB9AD
:1025B000187801F0FFFC1870587801F0FBFC587097
:1025C000987801F0F7FC9870002070BD7F7F7F0045
:1025D00070B504460CB9012070BD607F20B90020A1
:1025E0002077204600F04EF8022060772068C0680F
:1025F000C0F3001000283CD100BFCA202168486207
:1026000053202168486200BF204601F0EBFC0546DC
:10261000EDB9206880681A490840216888602169FE
:102620006068084361690843216889680843216834
:1026300088602168E068086120680169208941EAB2
:10264000004021680861204601F0F1FC05465DB9B3
:102650002068006C20F48020216808642068006CE9
:10266000A16908432168086400BFFF20216848620F
:1026700000E000250DB9012060772846ACE7000096
:10268000BFFF8FFF1FB5044600200090019002900D
:1026900003900949206888420CD102200090C001B3
:1026A00003906846FFF7D0FA08B1FEF7AFFA0120B1
:1026B000024908601FBD0000002800403C0E474250
:1026C0002DE9F04105460C4617464FF0000800BFC3
:1026D000287F012802D10220BDE8F081012028775F
:1026E00000BF022068774FB9607800F01000102812
:1026F00004D1607800F0EF000A30607087B9E078AC
:1027000001F063FC0304607801F05FFC43EA0023FE
:10271000A07801F05AFC0343207843EA403809E0EE
:10272000E0780004617840EA0120A178084321782C
:1027300040EA413800BFCA2029684862532029680E
:10274000486200BF284601F04DFC064646B90B48DA
:1027500008EA000029684860284601F068FC06463F
:102760000EB90120687700BFFF202968486200BFCA
:1027700000BF0020287700BF3046ADE73FFFFF00D5
:102780002DE9F04104460D4617464FF0000800BF02
:10279000207F012802D10220BDE8F08101202077AE
:1027A00000BF02206077CFB92068806800F0400049
:1027B00000B102E00020E87000BF287801F005FCBD
:1027C0000304687801F001FC43EA0023A87801F0D3
:1027D000FCFB0343E87843EA805812E020688068F5
:1027E00000F0400000B102E00020E87000BF28784F
:1027F0000004697840EA0120A9780843E97840EAB2
:10280000815800BFCA20216848625320216848626D
:1028100000BF204601F0E6FB0646B6B9124808EABA
:102820000000216808602068806820F4802021680A
:102830008860D5E903010843216889680843216855
:102840008860204601F0F3FB06460EB90120607750
:1028500000BFFF202168486200BF00BF0020207732
:1028600000BF304698E700007F7F7F0070B50446C8
:1028700000250B482168C860FFF706F9054607E008
:10288000FFF702F9401BB0F57A7F01D9032070BD34
:102890002068C06800F020000028F1D00020F6E792
:1028A0005F7F0100F0B589B004460E460027032083
:1028B00084F83400606C032820D0B6F5805F04D122
:1028C000A06B40F08050A0631CE0B6F5006F07D10C
:1028D000204602F005FC0546A06B2843A06311E0EA
:1028E0003EB9204602F0C8FB0546A06B2843A06312
:1028F00008E0A06B40F00060A06303E0A06B40F034
:102900008050A063A06B38B117482168886301200C
:1029100084F83400012713E060680390A0680490F5
:10292000E0680590069660690790A069089006A87F
:1029300007C88DE80700206803A90EC901F0CDFC87
:102940004FF40071206801F03FFD054635B106489F
:1029500021688863A06B2843A0630127012084F8C5
:102960003400384609B0F0BDFF05400010B50246FE
:10297000506E800F0870506EC0F383604870506EC8
:10298000C0F301608870506E000CC870B2F864002B
:10299000000A087192F864004871906E000DC880BA
:1029A000906EC0F3034008726820805AC0F3C030B4
:1029B00048726820805AC0F3803088726820805A3C
:1029C000C0F34030C8726820805AC0F300300873EA
:1029D00000204873506C002836D16820805A80054A
:1029E000030DD06E43EA90700861D06EC0F3C260F0
:1029F0000875D06EC0F302604875D06EC0F34250C7
:102A00008875D06EC0F38240C875D06EC0F3C230F6
:102A100008760869401C50650B7E506D03F0070373
:102A20009B1C01249C4060435065087A00F00F0312
:102A3000012098409065D2E915035B0A5843D065A0
:102A40004FF40073136621E0506C012813D1682005
:102A5000805C8006830AD06E43EA104008610869F2
:102A6000401C83025365536DD3654FF40073936527
:102A7000936D13660AE02E4813689863906B40F0DC
:102A800080509063012082F8340010BD6C20805A81
:102A9000C0F3803001F8190F6C20805AC0F3C610C3
:102AA00048706C20805C00F07F008870106FC00F51
:102AB000C870106FC0F341700871106FC0F382606E
:102AC0004871106FC0F383508871106FC0F340508D
:102AD000C87100200872106FC0F300404872702067
:102AE000805AC0F3C03088727020805AC0F38030A2
:102AF000C8727020805AC0F3403008737020805A2A
:102B0000C0F3003048737020805AC0F3812088736E
:102B10007020805AC0F30120C8737020805CC0F31D
:102B2000460008740120487419390020ADE7000000
:102B3000FF0540000246506C0860906C4860D06C05
:102B40008860106DC860506D0861906D4861D06DEF
:102B50008861106EC86100207047F8B504460020F7
:102B600000906946204602F06FFA054615B1A06B49
:102B70002843A0630098C0F343263046F8BD10B543
:102B800004460CB9012010BD94F8340020B900208F
:102B90002077204600F066F8032084F834002046B1
:102BA00000F00CF808B10120EDE70020A0632063DD
:102BB000012084F834000020E5E7000030B589B03A
:102BC000044600200390049005900690079076201C
:102BD000089006A807C88DE80700206803A90EC959
:102BE00001F07BFB00201D490860206801F08FFB8D
:102BF00001201A49A039C1F8A0000220FEF71EFEEC
:102C0000204602F0BBF9054645B1012084F83400A6
:102C1000A06B2843A063012009B030BD204602F01C
:102C20002BF905463DB1012084F83400A06B284300
:102C3000A0630120F0E74FF40071206801F0C4FBAD
:102C400005464DB1064821688863A06B2843A06300
:102C5000012084F83400DFE70020DDE7A080254272
:102C6000FF05400010B586B00446142101A8FDF709
:102C7000F3FA2A49206888424DD100BF0020009015
:102C80002748006840F4006025490860084600684D
:102C900000F40060009000BF00BF00BF0020009063
:102CA0001F481438006840F004001D4914390860BA
:102CB0000846006800F00400009000BF00BF00BF9D
:102CC000002000900846006840F0080008600846B0
:102CD000006800F00800009000BF00BF4FF4F850FB
:102CE00001900220029000200390032004900C2009
:102CF000059001A90B48FEF7B5FD042001900220C4
:102D0000029000200390032004900C20059001A95C
:102D10000548FEF7A7FD06B010BD0000002C0140DD
:102D20004438024000080240000C02402DE9FF4FE9
:102D300089B004468B469946DDF858A0FEF7A4FEFC
:102D400002900B9800905D46BBF1000F07D1A06B7D
:102D500040F00060A06301200DB0BDE8F08F94F852
:102D6000340001287ED10020A063009800EB090107
:102D7000E06D814205D9A06B40F00070A063012096
:102D8000EAE7032084F8340000202168C862606C00
:102D9000012802D00098400200904FF0FF300390CD
:102DA0004FEA4920049090200590022006900020D0
:102DB00007900120089003A9206801F069FAB9F191
:102DC000010F07D9022020632068009901F064FBFD
:102DD000804606E0012020632068009901F078FB1E
:102DE0008046B8F1000F0DD0784821688863A06B49
:102DF00040EA0800A063012084F83400002020632A
:102E00000120A9E7049E3AE02068406B00F40040EE
:102E1000E0B1DEB10020019015E0206801F07CFAFD
:102E200007462F706D1C761E380A28706D1C761EA2
:102E3000380C28706D1C761E380E28706D1C761E9E
:102E40000198401C019001980828E6D3FEF71CFE6B
:102E50000299401A504502D2BAF1000F0FD15B48D7
:102E6000216800E0ABE08863A06B40F00040A06305
:102E7000012084F834000020206303206CE72068E0
:102E8000406B40F22A3108400028BDD02068406BDA
:102E900000F48070D0B1B9F1010F17D9606C03282C
:102EA00014D0206801F0D4FB8046B8F1000F0DD09B
:102EB000464821688863A06B40EA0800A0630120AF
:102EC00084F8340000202063012045E72068406B2F
:102ED00000F0080020B92068406B00F4007068B171
:102EE0003A4821688863A06B40F00800A063012085
:102EF00084F834000020206301202DE72068406B17
:102F000000F0020068B1314821688863A06B40F08E
:102F10000200A063012084F8340000202063012017
:102F20001AE72068406B00F0200068B1274821684C
:102F30008863A06B40F02000A063012084F8340077
:102F400000202063012007E729E0206801F0E4F970
:102F500007462F706D1C761E380A28706D1C761E71
:102F6000380C28706D1C761E380E28706D1C761E6D
:102F7000FEF78AFD0299401A504502D2BAF1000FBD
:102F80000DD1124821688863A06B40F00040A06317
:102F9000012084F83400002020630120DCE6206852
:102FA000406B00F4001008B1002ECED140F23A5030
:102FB00021688863012084F834000020CCE6A06BEF
:102FC00040F00050A0630120C6E60000FF0540006D
:102FD0002DE9F04F89B00446894693469846FEF79E
:102FE00053FD0290DA464D46B9F1000F07D1A06BB0
:102FF00040F00060A063012009B0BDE8F08F94F8B4
:10300000340001287ED10020A0630AEB0801E06DA6
:10301000814205D9A06B40F00070A0630120EBE76E
:10302000032084F8340000202168C862606C012805
:1030300001D04FEA4A2A4FF0FF3003904FEA482070
:1030400004909020059000200690079001200890A1
:1030500003A9206801F01CF9B8F1010F07D920205D
:1030600020635146206801F011FB064606E010205F
:1030700020635146206801F025FB064666B1624890
:1030800021688863A06B3043A063012084F834007A
:10309000002020630120AFE7049F43E02068406BDD
:1030A00000F4804030B32FB3002001901FE0287857
:1030B00000906D1C7F1E2878009941EA0020009046
:1030C0006D1C7F1E2878009941EA004000906D1C1D
:1030D0007F1E2878009941EA006000906D1C7F1ED9
:1030E0006946206801F030F90198401C0190019870
:1030F0000828DCD3FEF7C8FC0299411A12988142D5
:1031000003D200E079E0129860B93F4821688863F3
:10311000A06B3043A063012084F8340000202063BA
:10312000032069E72068406B40F21A31084000280C
:10313000B4D02068406B00F48070B8B1B8F1010FD2
:1031400014D9606C032811D0206801F081FA06467A
:1031500066B12D4821688863A06B3043A0630120CD
:1031600084F8340000202063012045E72068406B8C
:1031700000F0080020B92068406B00F4007068B1CE
:10318000214821688863A06B40F00800A0630120FB
:1031900084F834000020206301202DE72068406B74
:1031A00000F0020068B1184821688863A06B40F005
:1031B0000200A063012084F8340000202063012075
:1031C0001AE72068406B00F0100068B10E482168D3
:1031D0008863A06B40F01000A063012084F83400E5
:1031E00000202063012007E740F23A5021688863FD
:1031F000012084F834000020FEE6A06B40F000506F
:10320000A0630120F8E60000FF05400070B5044609
:103210002546681EB0F1807F01D301200FE0681EB3
:103220004FF0E02148610F214FF0FF3002F0C6FB64
:1032300000204FF0E021886107200861002070BD68
:103240007047704730B502460B4600BF92F83C000D
:10325000012801D1022030BD012082F83C0000BFCE
:10326000022082F83D00106844681068816824F0EC
:1032700070041868044310684460184D1068A84230
:103280001BD01068B0F1804F17D0154D1068A842C0
:1032900013D0144D1068A8420FD0134D1068A842E7
:1032A0000BD0124D1068A84207D0114D1068A842EB
:1032B00003D0104D1068A84205D121F08001586854
:1032C000014310688160012082F83D0000BF0020AA
:1032D00082F83C0000BF00BFBDE7000000000140D5
:1032E0000004004000080040000C004000040140C1
:1032F000004001400018004010B504460CB9012000
:1033000010BD94F83D0028B9002084F83C00204608
:1033100000F026F8022084F83D00211D206802F00C
:1033200003F8012084F8460000BF84F83E00012124
:103330003F200155402001554120015500BF00BFED
:10334000012084F8420043200155442001554520C6
:10335000015500BF012084F83D000020D0E70000A7
:1033600008B50168B1F1804F0FD100BF0021009175
:103370001A49096841F00101184A116011460968AB
:1033800001F00101009100BF00BF154A01689142A0
:103390000FD100BF002100911049096841F00801D8
:1033A0000E4A11601146096801F00801009100BF42
:1033B00000BF0C4A016891420FD100BF002100916B
:1033C0000649096841F00401044A11601146096880
:1033D00001F00401009100BF00BF08BD4038024069
:1033E000000C004000080040014691F83D00012813
:1033F00001D001207047022081F83D001A4B086877
:1034000098421BD00868B0F1804F17D0174B08685E
:10341000984213D0164B086898420FD0154B086895
:1034200098420BD0144B0868984207D0134B086899
:10343000984203D0124B086898420CD10868806803
:1034400000F00702062A0CD00868006840F001006E
:103450000B68186005E00868006840F001000B6820
:1034600018600020C6E70000000001400004004092
:1034700000080040000C00400004014000400140F2
:1034800000180040014691F83D00012801D00120BC
:103490007047022081F83D000868C06840F00100D4
:1034A0000B68D8601A4B086898421BD00868B0F1C6
:1034B000804F17D0174B0868984213D0164B0868F6
:1034C00098420FD0154B086898420BD0144B0868EF
:1034D000984207D0134B0868984203D0124B0868F3
:1034E00098420CD10868806800F00702062A0CD0C8
:1034F0000868006840F001000B68186005E0086883
:10350000006840F001000B6818600020C0E7000070
:10351000000001400004004000080040000C004092
:103520000004014000400140001800402DE9F04136
:1035300004460D46002700BF94F83C00012802D144
:103540000220BDE8F081012084F83C0000BF022089
:1035500084F83D002068866826F0770626F47F46CA
:10356000206886602868502833D00CDC202850D092
:1035700004DC00284BD0102851D149E0302849D034
:1035800040284CD139E060282DD0702807D0B0F504
:10359000805F03D0B0F5005F41D10DE041E0D5E997
:1035A00002136A68206801F02FFF2068866846F0E1
:1035B00077062068866034E0D5E902136A682068DF
:1035C00001F022FF2068806840F480402168886014
:1035D00027E0EA686968206801F02AFF5021206826
:1035E00001F01DFF1DE0EA686968206801F033FF03
:1035F0006021206801F013FF13E0EA686968206821
:1036000001F016FF4021206801F009FF09E000BF2A
:1036100000BF00BF2968206801F001FF01E0012719
:1036200000BF00BF012084F83D0000BF002084F8E7
:103630003C0000BF384684E7704770B504462068F8
:10364000C5682068066906F00200022819D105F055
:103650000200022815D1401F21680861012020774F
:103660002068806900F0030018B12046FFF7E4FFEE
:1036700005E0204600F097F8204600F095F800207D
:10368000207706F00400042819D105F0040004286E
:1036900015D1C04321680861022020772068806925
:1036A00000F4407018B12046FFF7C6FF05E0204641
:1036B00000F079F8204600F077F80020207706F037
:1036C0000800082819D105F00800082815D1C043C2
:1036D00021680861042020772068C06900F0030099
:1036E00018B12046FFF7A8FF05E0204600F05BF880
:1036F000204600F059F80020207706F0100010282E
:1037000019D105F01000102815D1C04321680861B7
:10371000082020772068C06900F4407018B1204666
:10372000FFF78AFF05E0204600F03DF8204600F054
:103730003BF80020207706F0010048B105F00100B9
:1037400030B16FF0010021680861204600F02EF8CA
:1037500006F08000802809D105F08000802805D17E
:10376000C043216808612046FFF76AFD06F040006B
:10377000402809D105F04000402805D1C043216808
:103780000861204600F01EF806F02000202809D12C
:1037900005F02000202805D1C0432168086120469B
:1037A000FFF74FFD70BD704770470000034A016886
:1037B000914202D10121024A117070470008004075
:1037C00042000020704710B504460CB9012010BD1E
:1037D000A06900B100E000BF94F8410028B90020C2
:1037E00084F84000204600F029F8242084F84100A5
:1037F0002068C06820F400502168C860204601F0AD
:1038000075FE2068006920F49040216808612068F6
:10381000406920F02A00216848612068C06840F4AF
:1038200000502168C86000206064202084F84100B6
:1038300084F842000020606300BFC8E710B586B07E
:103840000446142101A8FCF707FD1B4920688842A3
:1038500030D100BF002000901848006840F01000F0
:10386000164908600846006800F01000009000BF8C
:1038700000BF00BF0020009010481438006840F0DE
:1038800001000E49143908600846006800F0010084
:10389000009000BF00BF4FF4C06001900220029072
:1038A00000200390032004900720059001A90448FC
:1038B000FDF7D8FF06B010BD0010014044380240AB
:1038C000000002402DE9F84F04460E46174699467F
:1038D0004FF0000A94F84100202850D106B117B9E2
:1038E0000120BDE8F88F00206064212084F84100A9
:1038F000FEF7CAF88246A784E784A068B0F5805F27
:1039000004D1206910B90025B04602E035464FF0D9
:1039100000081EE05346002280212046CDF800908A
:1039200001F0FAFE20B1202084F841000320D8E7FE
:1039300045B9B8F80000C0F308002168486008F1F4
:10394000020803E02878216848606D1CE08C401E66
:10395000E084E08C0028DDD153460022402120463F
:10396000CDF8009001F0D8FE20B1202084F841006D
:103970000320B6E7202084F841000020B1E70220B0
:10398000AFE700BFFEE700001FB5002000900190E8
:10399000029003901648174908604FF48030486041
:1039A0000021144881600161017680F820104FF0F9
:1039B0008051C1624FF0C06181620021C16001216C
:1039C000C16180F830104161FDF7DEFA08B1FDF702
:1039D0001DF9072000900120019000200290694607
:1039E0000448FDF749F908B1FDF710F91FBD0000C3
:1039F00000200140204300201FB5002000900190CE
:103A0000029003901648174908604FF480304860D0
:103A10000021144881600161017680F820104FF088
:103A20008051C1624FF0C06181620021C1600121FB
:103A3000C16180F830104161FDF7A6FA08B1FDF7C9
:103A4000E5F80420009001200190002002906946D2
:103A50000448FDF711F908B1FDF7D8F81FBD0000C3
:103A600000210140684300201FB500200090019014
:103A7000029003901648174908604FF48030486060
:103A80000021144881600161017680F820104FF018
:103A90008051C1624FF0C06181620021C16001218B
:103AA000C16180F830104161FDF76EFA08B1FDF791
:103AB000ADF800200090012001900020029069469E
:103AC0000448FDF7D9F808B1FDF7A0F81FBD0000C4
:103AD00000220140B043002008B500BF0020009044
:103AE0001248006840F480001049086008460068E9
:103AF00000F48000009000BF00BF00221146382073
:103B0000FEF750F83820FEF739F800221146392028
:103B1000FEF748F83920FEF731F8002211463A2026
:103B2000FEF740F83A20FEF729F808BD3038024089
:103B300010B502490248FDF76CF810BD580000208E
:103B4000C885000800B587B0142102A8FCF784FBE3
:103B500000BF002001902B48006840F00400294974
:103B600008600846006800F00400019000BF00BF34
:103B700000BF002001900846006840F08000086007
:103B80000846006800F08000019000BF00BF00BF41
:103B9000002001900846006840F0010008600846D7
:103BA000006800F00100019000BF00BF00BF0020CE
:103BB00001900846006840F0080008600846006868
:103BC00000F00800019000BF00BF002207210E484E
:103BD000FDF754FF0720029001200390002004907D
:103BE000059002A90848FDF73DFE4FF40040029001
:103BF00000200390049002A90448FDF733FE07B0AB
:103C000000BD00003038024000080240000C0240B5
:103C10001CB5184818490860002048607F211648E4
:103C20008160FF21C1600021016141618161FEF776
:103C3000CFFC08B1FCF7EAFF01210F48FEF762FC58
:103C400045F25001884213D0002007210B230E2299
:103C5000CDE900100A2140F2E97000F06DFA45F25A
:103C6000500201210448FEF756FC04A001F07AFE40
:103C70001CBD000000280040184500204649525352
:103C8000542054494D450A0010B5124812490860A5
:103C900000204860002110488160C16001614161DD
:103CA0005F218161FEF76BFF20B10CA001F05AFE8D
:103CB000012010BD0E490848FEF73CFF4FF400619B
:103CC0000548FEF7EFFD04460CB10220F1E70020A5
:103CD000EFE70000002C0140444500205344BFA8FA
:103CE000B3F5CABCBBAFCAA7B0DCA3A10D0A0000E4
:103CF000C845002000B587B00020039004900590CF
:103D00000690019002904FF08040184908601420FE
:103D100048600021154881600321C16000210161D4
:103D20008161FFF7E9FA20B111A001F01BFEFCF759
:103D30006DFF4FF48050039003A90C48FFF7F6FB8A
:103D400020B112A001F00EFEFCF760FF20200190D0
:103D50000020029001A90548FFF774FA20B114A0D1
:103D600001F000FEFCF752FF07B000BDE84500205F
:103D700048414C5F54494D5F426173655F496E69CC
:103D800074CAA7B0DCA3A10A0000000048414C5F40
:103D900054494D5F436F6E666967436C6F636B5345
:103DA0006F75726365CAA7B0DCA3A10A00000000AA
:103DB000D6F7B4D3C5E4D6C3CAA7B0DCA3A10A0022
:103DC00000B587B000200390049005900690019004
:103DD000029019481949086042F2CF00486000215A
:103DE0001648816040F2E731C160002101618161C4
:103DF000FFF782FA08B1FCF709FF4FF480500390F7
:103E000003A90E48FFF792FB08B1FCF7FFFE002064
:103E10000190029001A90948FFF714FA08B1FCF7D4
:103E2000F5FE002203211E20FDF7BCFE1E20FDF73B
:103E3000A5FE07B000BD0000000800407846002045
:103E400000B587B000200390049005900690019083
:103E50000290144814490860532048600021124819
:103E60008160491EC160002101618161FFF744FA50
:103E700008B1FCF7CBFE4FF48050039003A90A4829
:103E8000FFF754FB08B1FCF7C1FE0020019002903F
:103E900001A90548FFF7D6F908B1FCF7B7FE07B04E
:103EA00000BD0000000C00403046002010B50B485B
:103EB0000B4908604FF4E1304860002108488160F8
:103EC000C16001610C21416100218161C161FFF785
:103ED0007AFC08B1FCF79AFE10BD0000001001400A
:103EE000C046002000BFFEE700BFFEE770470000AD
:103EF0002DE9F74F8346144604EB44002B4911F893
:103F000020504FF00009CA465DB104EB440001EBBC
:103F10008000D0F8049004EB440001EB8000B0F87E
:103F200008A04FF000082AE03BF81860019800EB69
:103F30000807B6F57A7F16DD1DB90125B946B246E8
:103F400019E0564500DDB246A7EB09001849884242
:103F500011D3234652463946484600F027F907F167
:103F60000109B24607E035B10025791E23465246C5
:103F7000484600F01BF908F101001FFA80F8B8F577
:103F8000806FD1DB04EB4400084901F820505DB19B
:103F900004EB440001EB8000C0F8049004EB440003
:103FA00001EB8000A0F808A0BDE8FE8F8837002054
:103FB00040420F00014600BF080900EB80004200AC
:103FC00001F00F001044C0B270470146002203E028
:103FD000521CA1F10A00C1B20A29F9D2100741EA24
:103FE0001060704770B50446002600252068C06840
:103FF00000F04000C8B92068C06840F08000216827
:10400000C860FDF741FD064608E0FDF73DFD801B59
:10401000B0F57A7F02D90420607701252068C06856
:1040200000F0400008B9012DEFD1284670BD70B5F1
:10403000044600252068C06820F080002168C86020
:104040002068806800F0200030B92046FEF70EFCA2
:1040500010B1042060770125284670BD00B587B0F7
:10406000002202A91448FEF785FA10B1012007B01A
:1040700000BD002201A91048FEF756FA08B1012040
:10408000F5E79DF808000D4908709DF80900487093
:104090009DF80A0088709DF8070000F5FA60888096
:1040A0009DF8050088719DF80600C8719DF8040010
:1040B00008720020DBE7000018450020384500208A
:1040C000F0B503460C461546642093FBF0F0C6B2EB
:1040D000642093FBF0F700FB1730C1B2132E02DD12
:1040E00001F16400C1B20846CF1701EB977701EBED
:1040F000A707BAB2072092FBF0F700FB172082B2A5
:104100005719601EDFF82CC01CF80000384482B23A
:10411000CF1701EB9777BF10A1EB87071FB9032CCF
:1041200001DA501E82B2072092FBF0F700FB172045
:10413000C0B2F0BDB08500082DE9F04387B0044659
:104140000D4616461F46DDE90E898DF808708DF87C
:1041500009808DF80A9000208DF80B0005900690DC
:10416000002202A91048FEF70BFB08B1FCF74EFD38
:10417000A4F5FA60C0B28DF807008DF805508DF8EF
:104180000660324629462046FFF79AFF8DF8040064
:10419000002201A90448FEF793FA08B1FCF736FDA6
:1041A000002007B0BDE8F08318450020F0B50446B4
:1041B0000D462F4E56F82300B0F8E0612EB900BF2F
:1041C0002C4E3668766AC0F8E461B0F8E061142ECF
:1041D00028DB012680F8E26153B9254E3668264F68
:1041E000BE4201D1254E00E0234E214F3E6018E033
:1041F000012B0AD11E4E7668214FBE4201D1214EBD
:1042000000E01F4E1A4F7E600BE0022B09D1184EC2
:10421000B6681D4FBE4201D11C4E00E01A4E144F2D
:10422000BE60F0BDB0F8E06106EB460600EBC601EB
:10423000A54200D2F5E72E1B761CCE60B2F5FA6FD0
:1042400002DA01264E7208E040F6B836B24202DACF
:1042500002264E7201E003264E720A825E1C0E7226
:10426000B0F8E061761CA0F8E06100BFD9E700007B
:104270004400002030460020B0370020983900204C
:10428000803B0020683D0020503F00203841002046
:1042900010B5024600230868506248689062D1E970
:1042A000020420430C6920434C6920430343D06A35
:1042B00020F0F7001843D062002010BD01460869C5
:1042C000C0B270470146086800F00300704702461C
:1042D00002F114004318186870470FB410B5044673
:1042E0000021DDE903021043059A1043069A1043AA
:1042F000079A1043089A10430143606847F6FF622B
:10430000904308436060002010BC5DF814FB014638
:1043100003200860002070470146D1F880007047F4
:1043200010B50246002308689060D1E901042043DB
:10433000CC6820430C6920430343D0686FF30B0023
:104340001843D060002010BD02460868C2F8800003
:104350000020704770B585B005460C4600943720A4
:10436000019040200290002003904FF48060049060
:1043700069462846FFF7D4FF41F2883237212846A4
:1043800000F0DCF90646304605B070BD70B585B06A
:1043900005460C460B482043009029200190402000
:1043A0000290002003904FF48060049069462846F4
:1043B000FFF7B6FF284600F0C9FA0646304605B0BA
:1043C00070BD00000000108070B585B005460C4639
:1043D00000941020019040200290002003904FF4A0
:1043E0008060049069462846FFF79AFF41F28832C0
:1043F0001021284600F0A2F90646304605B070BDEF
:1044000070B585B005460C4600940620019040200A
:104410000290002003904FF4806004906946284683
:10442000FFF77EFF41F288320621284600F086F928
:104430000646304605B070BD30B585B00446002054
:1044400000900190029003904FF4806004906946C0
:104450002046FFF765FF204600F050F90546284644
:1044600005B030BD30B585B004464FF4D57000902E
:104470000820019040200290002003904FF48060BB
:10448000049069462046FFF74BFF204600F0E6FA0D
:104490000546284605B030BD70B585B005460C46CA
:1044A00000941220019040200290002003904FF4CD
:1044B0008060049069462846FFF732FF41F2883257
:1044C0001221284600F03AF90646304605B070BD84
:1044D00070B585B005460C4600941120019040202F
:1044E0000290002003904FF48060049069462846B3
:1044F000FFF716FF41F288321121284600F01EF91D
:104500000646304605B070BDF0B585B00646144687
:104510001D46009407200190402002900020039047
:104520004FF48060049069463046FFF7F9FE41F28F
:1045300088320721304600F001F90746384605B0B9
:10454000F0BD30B585B004460020009002200190F7
:10455000C0200290002003904FF4806004906946D0
:104560002046FFF7DDFE204600F0BEF9054628464E
:1045700005B030BD70B585B005460C4600940920E5
:104580000190C0200290002003904FF480600490BE
:1045900069462846FFF7C4FE284600F0A5F90646FE
:1045A000304605B070BD30B585B00446002000909F
:1045B0003320019040200290002003904FF480604F
:1045C000049069462046FFF7ABFE41F28832332162
:1045D000204600F0B3F80546284605B030BD70B55A
:1045E00085B005460C4600940D20019040200290B5
:1045F000002003904FF48060049069462846FFF73E
:104600008FFE41F288320D21284600F097F80646C9
:10461000304605B070BD70B585B005460C4600202B
:1046200000900320019040200290002003904FF45E
:104630008060049069462846FFF772FE22460321F7
:10464000284600F0AFF90646304605B070BD0000C0
:1046500030B585B00446002000900C200190402029
:104660000290002003904FF4806004906946204639
:10467000FFF756FE044A0C21204600F05FF805467D
:10468000284605B030BD000000E1F50570B585B0E5
:1046900005460C460094192001904020029000200D
:1046A00003904FF48060049069462846FFF738FE77
:1046B00041F288321921284600F040F8064630467B
:1046C00005B070BD70B585B005460C460094182045
:1046D000019040200290002003904FF480600490ED
:1046E00069462846FFF71CFE41F288321821284609
:1046F00000F024F80646304605B070BD01460E486D
:104700000068C0084FF47A73B0FBF3F041F28833CD
:1047100000FB03F200BF101EA2F1010202D14FF014
:1047200000407047486B00F080000028F3D0C5209F
:1047300088630020F5E70000980000202DE9F04391
:1047400005460F46904666480068C0084FF47A71E7
:10475000B0FBF1F000FB08F900BFB9F10000A9F1CE
:10476000010903D14FF00040BDE8F0836E6B06F005
:1047700045000028F1D006F400600028EDD1686BF8
:1047800000F0040010B10420A863EDE7686B00F0AE
:10479000010010B10120A863E6E7C520A863284600
:1047A000FFF78CFDB84201D00120DDE7002128464B
:1047B000FFF78DFD04464B48204008B90020D3E7A1
:1047C00004F00040B0F1004F02D14FF00070CBE791
:1047D00004F08040B0F1804F01D14020C4E704F0E4
:1047E0000050B0F1005F01D18020BDE704F080509F
:1047F000B0F1805F02D14FF48070B5E704F0006043
:10480000B0F1006F02D14FF40070ADE704F08060AA
:10481000B0F1806F02D14FF48060A5E704F08070A2
:10482000B0F1807F02D14FF400609DE704F40000F6
:10483000B0F5000F02D14FF4805095E704F48000EA
:10484000B0F5800F02D14FF400508DE704F4001052
:10485000B0F5001F02D14FF4804085E704F48010CA
:10486000B0F5801F02D14FF400407DE704F48020B2
:10487000B0F5802F02D14FF4003075E704F400301A
:10488000B0F5003F02D14FF480206DE704F4803092
:10489000B0F5803F02D14FF4002065E704F40040FA
:1048A000B0F5004F02D14FF480105DE704F4804072
:1048B000B0F5804F02D14FF4001055E704F40050DA
:1048C000B0F5005F02D14FF480004DE704F008001E
:1048D000082801D1000547E74FF4803044E7000085
:1048E0009800002008E0FFFD10B50146164800685A
:1048F000C0084FF47A74B0FBF4F041F2883400FB46
:1049000004F300BF181EA3F1010302D14FF00040D1
:1049100010BD4A6B02F045000028F3D002F400609D
:104920000028EFD1486B00F0040010B10420886328
:10493000EEE7486B00F0010010B101208863E7E763
:10494000C52088630020E3E79800002010B50146E9
:1049500013480068C0084FF47A74B0FBF4F041F2D9
:10496000883400FB04F300BF181EA3F1010302D139
:104970004FF0004010BD4A6B02F045000028F3D014
:1049800002F400600028EFD1486B00F0040010B181
:1049900004208863EEE7C52088630020EAE7000072
:1049A000980000202DE9F04304460F4690462A481F
:1049B0000068C0084FF47A71B0FBF1F041F2883121
:1049C00000FB01F900BFB9F10000A9F1010903D111
:1049D0004FF00040BDE8F083666B06F0450000280C
:1049E000F1D006F400600028EDD1606B00F0040007
:1049F00010B10420A063EDE7606B00F0010010B17E
:104A00000120A063E6E72046FFF758FCB84201D03A
:104A10000120DFE7C520A06300212046FFF757FCF7
:104A2000054605F4604020B9280CA8F800000020D5
:104A3000D0E705F48040B0F5804F02D14FF400502C
:104A4000C8E705F40040B0F5004F02D14FF48050A4
:104A5000C0E74FF48030BDE79800002010B5014654
:104A600018480068C0084FF47A74B0FBF4F041F2C3
:104A7000883400FB04F300BF181EA3F1010302D128
:104A80004FF0004010BD4A6B02F045000028F3D003
:104A900002F400600028EFD1486B00F0040010B170
:104AA00004208863EEE7486B00F0010010B101209C
:104AB0008863E7E7486B00F0400008B14020886356
:104AC0000020DFE79800002010B5044601200749C8
:104AD0000870FBF769FF28B90448007820F001004E
:104AE000024908700148007810BD00005400002001
:104AF0002DE9F04389B004460F46FCF7C5FF814617
:104B00004FF000080020019002903E4608212068E6
:104B1000FFF75AFC05461DB1284609B0BDE8F083F1
:104B20005022125B11042068FFF714FC05460DB1FA
:104B30002846F2E74FF0FF30039008200490302021
:104B4000059002200690002007900120089003A9FC
:104B50002068FFF79DFB2068FFF725FD05460DB196
:104B60002846DAE71CE02068406B00F4001040B1F2
:104B70002068FFF7D1FB01A941F8280008F10108DE
:104B800005E02068406B00F4005000B90EE0FCF72F
:104B90007BFFA0EB0900401C10B94FF00040BCE7C0
:104BA0002068406B00F02A000028DCD000BF20689D
:104BB000406B00F0080020B92068406B00F40070E2
:104BC00018B1082021688863A7E72068406B00F0CF
:104BD000020018B10220216888639EE72068406BBC
:104BE00000F0200018B120202168886395E740F28A
:104BF0003A502168886302980006029901F47F41C7
:104C000040EA0120029901F47F0140EA1120029953
:104C100040EA11603060361D01980006019901F4E8
:104C20007F4140EA0120019901F47F0140EA11200F
:104C3000019940EA1160306000206EE738B5002429
:104C400002E03BA000F08EFEFFF71EF80028F8D12E
:104C50003CA000F087FE01223EA13F4802F0D8FAB6
:104C600004462CB121463DA000F07CFE00BFFEE7CB
:104C7000002141A002F0E2FC0446042C15D13FA023
:104C800002F00EFCE00100231A461946009031A004
:104C900001F07CFF04461CB93BA000F063FE07E076
:104CA00021463EA000F05EFE02E044A000F05AFE65
:104CB00010224BA14E4802F0DBFA044634B94C48AE
:104CC00001F0D0FE4BA000F04DFE03E021464EA0C7
:104CD00000F048FE534A54491EA001F0D9FE044694
:104CE00004BB504800684069801E4E4909684989E4
:104CF000484340084D4908604A48006840894A498D
:104D00000968484340084849086048480068810AE3
:104D100047A000F027FE44480068810A49A000F03F
:104D200021FE03E021464DA000F01CFE38BD00002E
:104D300053442043617264204572726F72210D0AE0
:104D400000000000BCECB2E2B5BD5344BFA8210D89
:104D50000A000000303A0000084700205344BFA872
:104D6000B9D2D4D8CAA7B0DCA3A1B4EDCEF3C2EBBC
:104D7000A3BA25640D0A0000303A2F00303A42658C
:104D80007465636800000000534420466F726D61D3
:104D9000742046696E6973680D0A0000534420460A
:104DA0006F726D6174204572726F7220B4EDCEF334
:104DB000C2EBA3BA25640D0A000000005344BFA84B
:104DC000D2D1B4E6D4DACEC4BCFECFB5CDB3A3AC59
:104DD000CEDED0E8B8F1CABDBBAF0D0A00000000BE
:104DE000303A2F4144435F444154412E637376006F
:104DF000A8300020CEC4BCFED0B4C8EBB3C9B9A65D
:104E0000A3A10D0A00000000CEC4BCFEB4F2BFAAEC
:104E1000CAA7B0DCA3A1B4EDCEF3C2EBA3BA25645C
:104E20000D0A0000340000203C0000203800002063
:104E30005344BFA8D7DCC8DDC1BFA3BA2575204D38
:104E4000420D0A005344BFA8CAA3D3E0C8DDC1BFC6
:104E5000A3BA2575204D420D0A000000BBF1C8A180
:104E6000C8DDC1BFCAA7B0DCA3A1B4EDCEF3C2EBCD
:104E7000A3BA25640D0A000030B58FB004460120A6
:104E800003902068FFF71EFA18B94FF080600FB04A
:104E900030BD606C03281BD02068FFF752FB05462D
:104EA0000DB12846F3E700212068FFF710FA60678C
:104EB00004212068FFF70BFAA06708212068FFF79C
:104EC00006FAE0670C212068FFF701FA80210851FB
:104ED000606C032807D003A92068FFF79CFB0546F8
:104EE0000DB12846D3E7606C032820D0BDF80C1024
:104EF00021655022125B11042068FFF73BFB054639
:104F00000DB12846C3E700212068FFF7E0F960668D
:104F100004212068FFF7DBF9A06608212068FFF76D
:104F2000D6F9E0660C212068FFF7D1F9206704214B
:104F30002068FFF7CCF9010DE16404A92046FDF7D4
:104F400015FD10B14FF08050A1E75020005B010427
:104F50000A4600232068FFF7D7FA05460DB1284618
:104F600095E7D4E90412A069CDE90012029094E813
:104F70000F00FFF7B2F9002089E70000F8B50446FA
:104F800000200090002600272068FFF755FA05460C
:104F90000DB12846F8BD2068FFF764FA054645B113
:104FA0000021A1642068FFF747FA05461DB1284695
:104FB000F0E70121A164A06C012808D1002120683C
:104FC000FFF7C8F9054615B14FF08050E2E71DE044
:104FD00000212068FFF7BEF905460DB12846D9E744
:104FE00018492068FFF7D2F9054615B14FF08050F7
:104FF000D0E700212068FFF76AF90646012080EA21
:10500000D67080F001070098401C00904FF6FF71A9
:105010000098884201D2002FDAD04FF6FF71009835
:10502000884202D34FF08070B4E706F08040B0F1C0
:10503000804F02D10120606401E000206064002004
:10504000A8E70000000010C170B504460D4615B970
:105050004FF0006070BD5022125B11042068FFF712
:10506000BEFA06460EB13046F4E700212068FFF78D
:105070002EF928600020EDE77CB504460020009062
:10508000019000212068FFF722F900F00070B0F1D4
:10509000007F02D14FF400607CBD69462046FFF7D7
:1050A00027FD05460DB12846F6E7019800F480304B
:1050B00098B15022125B11042068FFF74BF90546A6
:1050C0000DB12846E8E700212068FFF799F9054669
:1050D0000DB12846E0E70020DEE74FF08060DBE717
:1050E0007CB5044600200090019000212068FFF765
:1050F000EEF800F00070B0F1007F02D14FF40060D4
:105100007CBD69462046FFF7F3FC05460DB12846F5
:10511000F6E7019800F4802098B15022125B110448
:105120002068FFF717F905460DB12846E8E7022188
:105130002068FFF765F905460DB12846E0E7002035
:10514000DEE74FF08060DBE710B50446012006493A
:105150000870FBF735FC20B92046FFF7B5FC024983
:1051600008700148007810BD54000020F0B589B0E7
:1051700007460D46144601261648007800F0010047
:1051800010B1032009B0F0BD35B1012D06D0022DBC
:105190000BD0032D18D10FE0002617E001A8FBF774
:1051A000F9FB07982060002610E001A8FBF7F2FB4E
:1051B00008982080002609E001A8FBF7EBFB08987F
:1051C000400A2060002601E0042600BF00BF3046F0
:1051D000D8E70000540000202DE9F04180460C463D
:1051E00015461E460127BB1E324629462046FBF7C0
:1051F0000BFC28B900BFFBF7D7FB0028FBD1002729
:105200003846BDE8F08110B504462046FFF75CFC47
:1052100010BD2DE9F04180460C4615461E4601277B
:10522000BB1E324629462046FBF706FC28B900BFC4
:10523000FBF7BAFB0028FBD100273846BDE8F08118
:10524000704710B5FCF726FC10BD000000B593B008
:10525000302107A8FBF700F8142102A8FAF7FCFF99
:1052600000BF002001902548006840F0805023498D
:1052700008600846006800F08050019000BF00BF41
:1052800000BF002001901E48006840F480401C4987
:1052900008600846006800F48040019000BF00BF2D
:1052A000052007904FF480300890012009900220DB
:1052B0000D9041050E9104210F91A821109102211A
:1052C00011910721129107A8FCF7CEFE08B1FBF758
:1052D0009DFC0F20029002200390002004904FF4C8
:1052E000A05005904FF480500690052102A8FCF7CD
:1052F0007BFD08B1FBF78AFC13B000BD40380240CB
:10530000007000400348006840F4700001490860E4
:105310007047000088ED00E010B50248FEF78DF9F7
:1053200010BD00007846002010B502682B4B984253
:105330000ED0B0F1804F0BD0294B984208D0294BAA
:10534000984205D0284B984202D0284B984203D16E
:1053500022F070024B681A43204B984220D0B0F1E3
:10536000804F1DD01E4B98421AD01E4B984217D02A
:105370001D4B984214D01D4B984211D01C4B9842A3
:105380000ED01C4B98420BD01B4B984208D01B4BA5
:10539000984205D01A4B984202D01A4B984203D13A
:1053A00022F44072CB681A4322F080034C6943EA2E
:1053B00004028B68C3620B688362084B984202D078
:1053C0000A4B984201D10B690363036843F004035D
:1053D000036001234361026010BD00000000014032
:1053E0000004004000080040000C004000040140A0
:1053F00000400140004401400048014000180040C6
:10540000001C00400020004030B50C46816821F4AB
:105410007F4142EA032525432943816030BD0A4686
:10542000816821F0700142F00703194381607047E1
:1054300030B50B461446026A056A25F0010505627F
:10544000816921F0F00141EA041122F00A021A43B5
:105450008161026230BD30B50B461446026A056AAE
:1054600025F010050562816921F4704141EA04319B
:1054700022F0A00242EA03128161026230BD00BF45
:1054800000BF02680C3252E8002F22F490710268CB
:105490000C3242E80013002BF3D100BF00BF00BF65
:1054A0000268143252E8002F22F00101026814321F
:1054B00042E80013002BF3D100BF016B01290ED18C
:1054C00000BF00BF02680C3252E8002F22F010012A
:1054D00002680C3242E80013002BF3D100BF2021F8
:1054E00080F8421000210163704700002DE9F84F59
:1054F00004462068006920F44050E16808432168B0
:1055000008612169A068084361690843E1690843AB
:1055100000902068C06849F20C61884300990843F4
:105520002168C8602068406920F44070A169084380
:105530002168486176492068884203D0754920680F
:10554000884203D1FCF728FD814602E0FCF714FDF8
:105550008146E069B0F5004F6CD102206168A0FB84
:10556000015003461920A9FB007001462A4638461F
:10557000FAF728FE6421B0FBF1F04FEA001A02208E
:105580006168A0FB01510B461920A9FB00712A4656
:105590003846FAF717FE834602206168A0FB0150E7
:1055A00003461920A9FB00712A463846FAF70AFE7D
:1055B0006421B0FBF1F000EBC00101EB0010ABEB9C
:1055C0008000322101EBC0006421B0FBF1F000F05B
:1055D000F8000AEB400A02206168A0FB0150034674
:1055E0001920A9FB007001462A463846FAF7EAFD61
:1055F000834602206168A0FB015003461920A9FBE5
:1056000000712A463846FAF7DDFD6421B0FBF1F05F
:1056100000EBC00101EB0010ABEB8000322101EB8D
:10562000C0006421B0FBF1F000F007005044216895
:1056300088606AE004206168A0FB015003461920DD
:10564000A9FB007001462A463846FAF7BBFD8246A0
:1056500004206168A0FB015003461920A9FB0070DB
:1056600001462A463846FAF7ADFD6421B0FBF1F059
:1056700000EBC00101EB0010AAEB8000322101EB2E
:1056800000106421B0FBF1F000F0F00A0420616822
:10569000A0FB017003461920A9FB00513A46284699
:1056A000FAF790FD6421B0FBF1F00AEB001A042038
:1056B0006168A0FB01510B461920A9FB00712A4625
:1056C0003846FAF77FFD834604206168A0FB01504D
:1056D00003461920A9FB007001462A463846FAF70E
:1056E00071FD6421B0FBF1F000EBC00101EB001093
:1056F000ABEB8000322101EB00106421B0FBF1F034
:1057000000F00F00504421688860BDE8F88F000069
:1057100000100140001401402DE9F84304460D46F5
:1057200017469846089E31E0701C70B3FCF7ACF940
:10573000A0EB0800B04200D816B90320BDE8F883FA
:105740002068C06800F00400F8B1802D1ED0402D04
:105750001CD020680068C0F3C000B0B100BF0020BA
:10576000009020680068009020684068009000BFAA
:1057700000BF2046FFF783FE0820606400BF0020C2
:1057800084F8400000BF0120D8E7FFE720680068E8
:105790002840A84201D1012000E00020B842C3D037
:1057A0000020CBE700BFFEE72DE9F0412DED048B93
:1057B0009AB00446B4F8E00138B9002084F8E20158
:1057C0001AB0BDEC048BBDE8F081FEF747FC3D4804
:1057D000007800282BD132223BA13F4801F048FD40
:1057E0003E4908700846007828B1084601783CA078
:1057F00000F0B8F8E4E739480078082806D13222EA
:1058000031A1354801F034FD344908703BA52846E4
:10581000FAF72DFD064604AB324629462E4801F024
:105820007CFF2E49087001202649087000BF002621
:1058300038E015A802F022FB06EB460004EBC00599
:10584000288AFAF7A3FE41EC190B9FED360B53ECB7
:10585000102BFAF7BAFD41EC180B8DED028B697A2B
:10586000E868CDE900102B7A15AA30A105A800F050
:1058700089F887B205A8FAF7FAFC804604AB4246DD
:1058800005A9154801F049FF144908700846007839
:1058900030B105AA084601782AA000F063F805E0B7
:1058A000701CC6B2B4F8E001B042C2DC00BF0A48C6
:1058B00001F0E3FE0020A4F8E00184F8E20100BF5B
:1058C0007EE7000041000020303A2F4144435F440E
:1058D0004154412E63737600A83000204000002020
:1058E000CEC4BCFEB4F2BFAACAA7B0DCA3A1B4ED7B
:1058F000CEF3C2EBA3BA25640D0A0000CAB1BCE422
:105900002CCDA8B5C02CB5B5CEBB2CB3D6D0F8CA1B
:10591000B1BCE4287573292CD7EEB4F3D6B528565C
:10592000290D0A003D9B559FABAD983F25732C2553
:105930006868752C256868752C256C752C252E32A9
:10594000660D0A00D0B4C8EBCAA7B0DCA3A1B4EDC1
:10595000CEF3C2EBA3BA2564A3ACD0D0A3BA25730F
:105960000D0A00000FB4054B10B503A9044A0298B4
:1059700000F00AF910BC5DF814FB0000AD7C0008D3
:10598000A40000200FB4084B10B504A902AA039884
:1059900000F0FAF8044602A9002000F078FC204646
:1059A00010BC5DF814FB00008F620008024800681C
:1059B000C0F30220704700000CED00E010B5002895
:1059C00004DB0A07130E054A135406E00A07140EF7
:1059D000034A00F00F031B1FD45410BD00E400E085
:1059E00018ED00E002E008C8121F08C1002AFAD131
:1059F00070477047002001E001C1121F002AFBD14F
:105A0000704700002DE9FF5F82B00021DDE904301E
:105A1000020DDDF840B0034318D044F61050A2F256
:105A2000FF3242431514119801281FD0A5EB0B003B
:105A3000401C5FEA000A4FF000064E4FDFF8389135
:105A4000B046504615D5CAF1000413E01198012460
:105A50004AA3012801D16FEA0B010298119AC0E90B
:105A60000031C0E9024206B0BDE8F09FCBF1000072
:105A7000DFE704460021404A491842EB0450CDE9D3
:105A8000001012E0E00707D032463B464046494648
:105A9000FAF79BFC8046894632463B46104619463B
:105AA000FAF793FC06460F466410002CEAD1DDE9B4
:105AB0000401DDE90023BAF1000F06DAFAF785FCEC
:105AC00042464B46FAF781FC05E0FAF7F0FC424605
:105AD0004B46FAF7ECFC04460E460022284BFAF738
